:04000000FEEFFFF020
:1026000000596561682E2E2E00006100F4F4D9F4A3
:102610006100F8F4DAF4DEC4F6F4DDC4F7F408007F
:10262000F550250AD8A417EF13F019EF13F068EF4F
:1026300013F06100F4F4D9F46100F8F4DAF4DE2A5E
:10264000000EDD22000E2C6E000E2B6E2BC52FF51A
:102650002CC530F52D682E686100F4F4D9F46100C2
:10266000F8F4DAF4DEC4F6F4DDC4F7F40800F5504B
:10267000250AD8A43EEF13F040EF13F059EF13F002
:102680006100F4F4D9F46100F8F4DAF4DE2A000E03
:10269000DD22000E336E250E326E3BC534F53CC58F
:1026A00035F588EC13F0000E3C6E010E3B6E87EFA3
:1026B00013F06100F4F4D9F46100F8F4DAF4DE2ADE
:1026C000000EDD22000E3C6E000E3B6E87EF13F015
:1026D0006100F4F4D9F46100F8F4DAF4DEC4F6F43D
:1026E000DDC4F7F40800F550326E336A3BC534F5AB
:1026F0003CC535F588EC13F06100F4F4D9F46100C1
:10270000F8F4DAF4DE2A000EDD2253EF13F01200A3
:1027100034503510D8B48FEF13F091EF13F09AEFD7
:1027200013F034503510D8A498EF13F09AEF13F04B
:102730009FEF13F0325024EC14F0D2EF13F020EEA0
:1027400004F03450D9263550DA22DE50DE10D8B4E9
:10275000ACEF13F0AEEF13F0C9EF13F020EE04F07E
:102760003450D9263550DA2210EE02F03450E126EA
:102770003550E222DE50E65CE650800A3A6EDE50CA
:10278000800A3A58D8B0C7EF13F0C9EF13F0D2EF70
:1027900013F020EE02F03450D9263550DA22DE2A2A
:1027A000000EDD22120043C547F544C548F5000E72
:1027B0002A6E000E296EEFEF13F041C53BF542C5BE
:1027C0003CF5470E3D6E050E3E6E45C53FF546C5D0
:1027D00040F505EC13F03B5029263C502A226100BD
:1027E0001CF5F6F4610020F5F7F40800F550000937
:1027F000D8A4FDEF13F0FFEF13F0DDEF13F029C5C0
:1028000041F52AC542F512004B0E4B6E050E4C6E7B
:10281000000E416E000E426E49C543F54AC544F5AF
:102820004B0E456E050E466ED3EC13F0120001EE12
:1028300001F1300EEE6AE806FDE1000EF86E260E9C
:10284000F76E000131EF14F0316E0201B2AF2BEFE1
:1028500014F02DEF14F025EF14F06100C4F4A3F28E
:1028600012003DEC14F0010E496E260E4A6E04EC87
:1028700014F039EF14F0FEEFFFF00201AB8BAC8FD8
:02288000120044
:020000040001F9
:04FFFC0017EF14F0F7
:020000040020DA
:10000000FF0FFF0FFF0FFF0FFF0FFF0FFF0FFF0F80
:10001000FF0FFF0FFF0FFF0FFF0FFF0FFF0FFF0F70
:020000040030CA
:0A000000FFFFFFFFFFFFFFFFFFFF00
:00000001FF
