:04000000FEEFFFF020
:102600000050727565626120646520696D70726545
:102610007369F36E00006100E4F4D9F46100E8F43A
:10262000DAF4DEC4F6F4DDC4F7F40800F550250A48
:10263000D8A41DEF13F01FEF13F06EEF13F061003D
:10264000E4F4D9F46100E8F4DAF4DE2A000EDD22C5
:10265000000E286E000E276E27C52BF528C52CF519
:1026600029682A686100E4F4D9F46100E8F4DAF436
:10267000DEC4F6F4DDC4F7F40800F550250AD8A44A
:1026800044EF13F046EF13F05FEF13F06100E4F452
:10269000D9F46100E8F4DAF4DE2A000EDD22000E3F
:1026A0002F6E250E2E6E37C530F538C531F58EEC00
:1026B00013F0000E386E010E376E8DEF13F06100CF
:1026C000E4F4D9F46100E8F4DAF4DE2A000EDD2245
:1026D000000E386E000E376E8DEF13F06100E4F4DB
:1026E000D9F46100E8F4DAF4DEC4F6F4DDC4F7F4FA
:1026F0000800F5502E6E2F6A37C530F538C531F514
:102700008EEC13F06100E4F4D9F46100E8F4DAF43B
:10271000DE2A000EDD2259EF13F012003050311086
:10272000D8B495EF13F097EF13F0A0EF13F03050FB
:102730003110D8A49EEF13F0A0EF13F0A5EF13F023
:102740002E502AEC14F0D8EF13F020EE04F03050A5
:10275000D9263150DA22DE50DE10D8B4B2EF13F0B1
:10276000B4EF13F0CFEF13F020EE04F03050D92681
:102770003150DA2210EE02F03050E1263150E222E0
:10278000DE50E65CE650800A366EDE50800A36582F
:10279000D8B0CDEF13F0CFEF13F0D8EF13F020EE59
:1027A00002F03050D9263150DA22DE2A000EDD2226
:1027B00012003FC543F540C544F5000E266E000EDD
:1027C000256EF5EF13F03DC537F53EC538F5430EE0
:1027D000396E050E3A6E41C53BF542C53CF50BEC32
:1027E00013F0375025263850262261000CF5F6F4F8
:1027F000610010F5F7F40800F5500009D8A403EFC4
:1028000014F005EF14F0E3EF13F025C53DF526C5F0
:102810003EF51200470E476E050E486E000E3D6EE7
:10282000000E3E6E45C53FF546C540F5470E416E6C
:10283000050E426ED9EC13F0120001EE01F12C0EE0
:10284000EE6AE806FDE1000EF86E260EF76E000156
:1028500037EF14F02D6E0201B2AF31EF14F033EF09
:1028600014F02BEF14F06100B4F4A3F2120043EC67
:1028700014F0010E456E260E466E0AEC14F03FEF82
:0E28800014F0FEEFFFF00201AB8BAC8F1200E4
:020000040001F9
:04FFFC001DEF14F0F1
:020000040020DA
:10000000FF0FFF0FFF0FFF0FFF0FFF0FFF0FFF0F80
:10001000FF0FFF0FFF0FFF0FFF0FFF0FFF0FFF0F70
:020000040030CA
:0A000000FFFFFFFFFFFFFFFFFFFF00
:00000001FF
